:020000040000FA
:10000000000000009DEF05F0046A0F6E106A009674
:100010000450D8B40086050E036E270E0E6E100E27
:100020000CD8030E0E6EE80E08D80E6A640E05D8C2
:100030000E6A0A0E02D80F5007D00D6E10500A6ECD
:100040000F50096E7AD80950096E034E009604507D
:1000500002E0035C07E20950D8A4009600B602D083
:10006000300F2DD01200ABB2AB98AB8802C009F0B4
:1000700005C00AF00D6A0E6A000000D000009EBAAA
:100080000FD0E8680D260E2209220A22D8A01200FD
:100090000D480E3CF1D7D00E0D6E030E0E6EEED74E
:1000A000AE50D8801200A66AA68E0900F55002E074
:1000B00002D8FBD712009EA8FED7AD6E120001B485
:1000C000FAD7A96EA66AA680A850A94AAA2AA68E1F
:1000D0001200A86EA66AA684550EA76EAA0EA76E79
:1000E000A682A6B2FED7A694A94AAA2AA68E120074
:1000F0000E6A0D6EFF0E0D260E2200D0D8A0120043
:10010000030E0A6EE60E02D8F5D70A6AFE0F096ED4
:10011000000000D000D0E86A0A5AD8A012000906F0
:1001200000D000D0F5D7010F126E0A0E0D6E0E6AC8
:1001300004D8122EFDD70F501200106A0F6A100E4D
:10014000F36E0A340F3610360D500F5C0E501058F7
:1001500005E30D500F5E0E50105AD88009360A364E
:10016000F32EEFD7095012000D501102F3CF0FF00C
:10017000F4CF10F00E501102F35010260D50120261
:10018000F35010260F5012000D6A0E6A04D00A3286
:1001900009320D360E36FF0FFAE20EC00AF00D508E
:1001A000096E1200504C4C20536F757263652032FB
:1001B000303138004A6F6E2057616C6B657228636E
:1001C0002920456D61696C3A204A6F6E404D574158
:1001D00056452D4C54442E636F6D000052657620B9
:1001E000362E30204A554C203230313900005375BC
:1001F00070706F727473204D5741564520534F55A0
:10020000524345204755490030203D2031332E30A0
:10021000302047487A0031203D2031312E323020C5
:1002200047487A0032203D2031302E303020474878
:100230007A0033203D2031302E35302047487A0077
:1002400034203D2031302E36302047487A0035208A
:100250003D2031312E30302047487A0036203D2075
:1002600031302E35302047487A0037203D2031315B
:100270002E37302047487A0038203D2031322E3248
:10028000302047487A0039203D2031322E37302047
:1002900047487A0044203D20446563726561736578
:1002A000204672657175656E637920627920313000
:1002B0004D487A0049203D20496E6372656173653F
:1002C000204672657175656E6379206279203130E0
:1002D0004D487A0046203D204631323530302028C6
:1002E00054554E4520544F2031323530304D487AE8
:1002F000292E202052616E67652031302E3030204B
:100300002D2031352E303047487A205374657020C7
:1003100031304D487A0066203D206631323530302C
:10032000202854554E4520544F2031323530304D21
:10033000487A292E202052616E67652031302E3098
:1003400030202D2031352E303047487A20537465C7
:10035000702031304D487A004C203D20546F676743
:100360006C65204C6F636B204C6564004D206F7290
:10037000206D2053746F7265732063757272656EA1
:100380007420504C4C204C61746368657320696E16
:1003900020454550524F4D0050203D20496E63721C
:1003A0006561736520706F776572206279203164B2
:1003B00042004F203D204465637265617365207083
:1003C0006F776572206279203164420051203D20B0
:1003D000524620506F776572207265736574000015
:1003E0004B203D20537765657020417474656E75B0
:1003F00061746F72206D696E20746F206D6178007A
:1004000052206F7220722052657365747320504CB5
:100410004C20616E6420726563616C6C73206D6545
:100420006D6F7279000053205377656570204F4ED1
:10043000434520303132333420746F20353637381D
:10044000392044656C61792041424344206D53203A
:100450004558205331303730303132373030443026
:100460003530302031302E3730202D2031322E37AC
:100470003047487A2044656C6179203530306D53BF
:1004800020537465702031304D487A0053205377E3
:1004900065657020434F4E54494E554F55534C5946
:1004A00020284220746F20427265616B2920303110
:1004B00032333420746F2035363738392044656C38
:1004C00061792041424344206D53204558205331E7
:1004D00030373030313237303044303530305920D9
:1004E00031302E3730202D2031322E373047487AA8
:1004F0002044656C6179203530306D53205374652C
:10050000702031304D487A00732053776565702034
:1005100031302E373020746F2031322E3735206441
:10052000656C617920313030306D530054203D20AE
:1005300053656E64203920627974657320746F206E
:10054000504C4C2028465F4C617463683A525F4CB3
:10055000617463683A4E5F4C617463682920457822
:10056000616D706C6520666F7220313047487A3A51
:100570002054344638303132393130303130303037
:1005800030433231000058203D20506F7765722093
:100590004F66662056434F2C20504120616E6420E8
:1005A000417474656E7561746F72000059203D204E
:1005B000506F776572204F6E2056434F2C2050416C
:1005C00020616E6420417474656E7561746F720091
:1005D0007B55497C5345547C494E464F2E54657893
:1005E000743D455849542050427D00007B55497C5C
:1005F0005345547C494E464F2E546578743D504FB8
:100600005745522053454C4543544544204F4E20B6
:10061000504F547D00007B55497C5345547C494ED6
:10062000464F2E546578743D4652455155454E43CC
:10063000592053454C4543544544204F4E20504F7C
:10064000547D00007B55497C5345547C50412E54C9
:100650006578743D5041204F46467D007B55497C6E
:100660005345547C4154542E546578743D007B5559
:10067000497C5345547C50412E546578743D50411B
:10068000204F4E7D00007B55497C5345547C494E9C
:10069000464F2E546578743D4672657175656E7966
:1006A00020496E6372656D656E747D007B55497C73
:1006B0005345547C494E464F2E546578743D4672DE
:1006C000657175656E792044656372656D656E74DC
:1006D0007D00504C4C204C6F636B204F4B21000031
:1006E0007B55497C5345547C4C4F434B2E54657885
:1006F000743D4C4F434B45447D007B55497C5345ED
:10070000547C4C4F434B2E546578743D554E4C4FA2
:10071000434B45447D007B55497C5345547C494EB1
:10072000464F2E546578743D434845434B2043491A
:1007300052435549547D00007B55497C5345547CB8
:10074000494E464F2E546578743D417474656D7002
:1007500074696E67204C6F636B204174207D0000CC
:100760007B55497C5345547C494E464F2E54657801
:10077000743D524543414C4C204D454D4F52597D9F
:1007800000007B55497C5345547C494E464F2E54BE
:100790006578743D53455454494E47532053415650
:1007A00045447D007B55497C5345547C494E464F1A
:1007B0002E546578743D4552524F52204F55542067
:1007C0004F462052414E47457D007B55497C53455D
:1007D000547C4C4F434B2E546578743D504C4C2008
:1007E0004C4F434B45447D007B55497C5345547CDD
:1007F0004C4F434B2E546578743D504C4C20554E15
:100800004C4F434B45447D007B55497C5345547CBC
:10081000465245512E546578743D00007B55497C05
:100820005345547C52462E546578743D5246204FB1
:100830004E7D00007B55497C5345547C52462E54D6
:100840006578743D5246204F46467D007B55497C75
:100850005345547C494E464F2E546578743D53455C
:100860005249414C20425546464552204F5645522A
:10087000464C4F577D007B55497C5345547C494E2F
:10088000464F2E546578743D4D454D4F525920309A
:100890003A2031332E303047487A7D007B55497CF1
:1008A0005345547C494E464F2E546578743D4D4512
:1008B0004D4F525920313A2031312E323047487A4B
:1008C0007D007B55497C5345547C494E464F2E5400
:1008D0006578743D4D454D4F525920323A203130A4
:1008E0002E303047487A7D007B55497C5345547CF7
:1008F000494E464F2E546578743D4D454D4F5259E3
:1009000020333A2031302E353047487A7D007B55F0
:10091000497C5345547C494E464F2E546578743D6E
:100920004D454D4F525920343A2031302E36304704
:10093000487A7D007B55497C5345547C494E464F4F
:100940002E546578743D4D454D4F525920353A200F
:1009500031312E303047487A7D007B55497C5345F4
:10096000547C494E464F2E546578743D4D454D4F4D
:10097000525920363A2031312E323547487A7D009F
:100980007B55497C5345547C494E464F2E546578DF
:10099000743D4D454D4F525920373A2031312E3755
:1009A0003047487A7D007B55497C5345547C494EFD
:1009B000464F2E546578743D4D454D4F5259203861
:1009C0003A2031322E323047487A7D007B55497CBF
:1009D0005345547C494E464F2E546578743D4D45E1
:1009E0004D4F525920313A2031322E373047487A14
:1009F0007D007B55497C5345547C494E464F2E54CF
:100A00006578743D494E4352454D454E54204652FB
:100A100045512031304D487A7D007B55497C534506
:100A2000547C494E464F2E546578743D444543529C
:100A3000454D454E5420465245512031304D487A5F
:100A40007D007B55497C5345547C494E464F2E547E
:100A50006578743D4552524F5220494E20524551BF
:100A6000554553542E20204558414D504C45204665
:100A70003132303030203D203132303030204D485E
:100A80007A7D00007B55497C5345547C494E464F46
:100A90002E546578743D52455345547D00007B5576
:100AA000497C5345547C494E464F2E546578743DDD
:100AB00056434F2C20504120414E44204449474941
:100AC00054414C20415454454E5541544F52204FAF
:100AD00046467D007B55497C5345547C494E464FE4
:100AE0002E546578743D56434F2C20504120414E82
:100AF00044204449474954414C20415454454E55A3
:100B000041544F52204F4E7D00007B55497C534548
:100B1000547C494E464F2E546578743D4D5741568E
:100B20004520534F555243452056362E30204A55C6
:100B30004C5920323031397D0000006A220EAF6EF0
:100B4000240EAC6E900EAB6E0F01386B396B3A6BA6
:100B5000796A786A386B396B3A6BF26AF16AF06AD3
:100B6000C66AB16A100E926E936A870E946E780E02
:100B7000D36E840ED26E850ED56E310ECD6E000111
:100B800010EF0CF01AD9010EF76EA40EF66E53ECAE
:100B900000F00D0E5BEC00F0010EF76EB40EF66E79
:100BA00053EC00F00D0E5BEC00F0010EF76EDC0E66
:100BB000F66E53EC00F00D0E5BEC00F0010EF76EDC
:100BC000EE0EF66E53EC00F00D0E5BEC00F0F5D877
:100BD000020EF76E080EF66E53EC00F00D0E5BEC95
:100BE00000F0020EF76E160EF66E53EC00F00D0ECE
:100BF0005BEC00F0020EF76E240EF66E53EC00F084
:100C00000D0E5BEC00F0020EF76E320EF66E53EC3A
:100C100000F00D0E5BEC00F0020EF76E400EF66E6B
:100C200053EC00F00D0E5BEC00F0020EF76E4E0E72
:100C3000F66E53EC00F00D0E5BEC00F0020EF76E5A
:100C40005C0EF66E53EC00F00D0E5BEC00F0020E45
:100C5000F76E6A0EF66E53EC00F00D0E5BEC00F0D2
:100C6000020EF76E780EF66E53EC00F00D0E5BEC94
:100C700000F0020EF76E860EF66E53EC00F00D0ECD
:100C80005BEC00F0020EF76E940EF66E53EC00F083
:100C90000D0E5BEC00F0020EF76EB40EF66E53EC28
:100CA00000F00D0E5BEC00F0020EF76ED40EF66E47
:100CB00053EC00F00D0E5BEC00F0030EF76E160E19
:100CC000F66E53EC00F00D0E5BEC00F0030EF76EC9
:100CD000580EF66E53EC00F00D0E5BEC00F0030EB8
:100CE000F76E6C0EF66E53EC00F00D0E5BEC00F040
:100CF000030EF76E980EF66E53EC00F00D0E5BECE3
:100D000000F0030EF76EB20EF66E53EC00F00D0E0F
:100D10005BEC00F0030EF76ECC0EF66E53EC00F0B9
:100D20000D0E5BEC00F0030EF76EE00EF66E53EC6A
:100D300000F00D0E5BEC00F0040EF76E000EF66E88
:100D400053EC00F00D0E5BEC00F0040EF76E260E77
:100D5000F66E53EC00F00D0E5BEC00F0040EF76E37
:100D60008C0EF66E53EC00F00D0E5BEC00F0050EF1
:100D7000F76E080EF66E53EC00F00D0E5BEC00F013
:100D8000050EF76E2C0EF66E53EC00F00D0E5BECBC
:100D900000F0050EF76E860EF66E53EC00F00D0EA9
:100DA0005BEC00F0050EF76EAC0EF66E53EC00F047
:100DB0000D0E5BEC00F001D81200010E1B6E290E27
:100DC0001B5C05E22A0E5BEC00F01B2AF8E30D0E1B
:100DD0005BEC00F01200899689920A0EE82EFED78D
:100DE00000000000180E996F995329E08CC00CF098
:100DF0008BC00BF08AC00AF089C009F09905E82A77
:100E00000C320B320A320932E82EFAD7010ED8A082
:100E1000000E8984E8A089941A0EE82EFED70000FF
:100E2000000089821A0EE82EFED700000000899289
:100E30001A0EE82EFED7000000009907D5D7898644
:100E40001A0EE82EFED70000000089961200899045
:100E50001A0EE82EFED70000000090C08CF08FC064
:100E60008BF08EC08AF08DC089F0B5DF94C08CF015
:100E700093C08BF092C08AF091C089F0ACDF98C02B
:100E80008CF097C08BF096C08AF095C089F0A3DFF4
:100E900089809DEC0BF012001B6AFA0E1B5C07E1C7
:100EA000050EF76ED00EF66E53EC00F012009A8528
:100EB00082A49A9582B216D0640E78EC00F082A2D9
:100EC000FED79A799A51E8B807D0050EF76EEC0E66
:100ED000F66E53EC00F006D0060EF76E160EF66EA8
:100EE00053EC00F0E86A9AB5010F9AB301081AE0D2
:100EF0001B6AE86A82B0010F9AB5010807E09A51AF
:100F0000E8A802D039D801D0AAD806D09A51E8A8CA
:100F100002D00ED801D0BCD80A0E78EC00F09A832B
:100F200082A49A930A0E78EC00F01B2AB6D712001E
:100F30009B2B200E9B5D1FE19A51E8AA1AD08B983B
:100F40009A9B9B6B060EF76E440EF66E53EC00F008
:100F5000060EF76E5C0EF66E53EC00F0040E016E9A
:100F6000020E046E9B5105EC00F07D0E5BEC00F070
:100F700002D01F0E9B6F21D09B531EE19A51E8BAFD
:100F80001AD08B889A8B1F0E9B6F060EF76E6E0E13
:100F9000F66E53EC00F0060EF76E5C0EF66E53EC38
:100FA00000F0040E016E020E046E9B5105EC00F081
:100FB0007D0E5BEC00F001D09B079B1D1C6E0A6A46
:100FC0001CC009F0050EC4EC00F08A6E060EF76E28
:100FD0005C0EF66E53EC00F0040E016E020E046E11
:100FE0009B5105EC00F07D0E5BEC00F09A51E8AAF5
:100FF00007D0060EF76E6E0EF66E53EC00F006D0BC
:10100000060EF76E440EF66E53EC00F012009BC015
:101010009CF0D8929ABBD882D8B29A8DD8A29A9DC9
:101020009A9B8B981F0E9B6F9B1D1C6E0A6A1CC09F
:1010300009F0050EC4EC00F08A6E12009A51E8AC7B
:1010400002D09A8B8B889CC09BF09B1D1C6E0A6AF9
:101050001CC009F0050EC4EC00F08A6E1200060EEA
:10106000F76E860EF66E53EC00F001010A51010A8C
:10107000F50ED8B40919000101E112000101092B94
:10108000000E0A230001B4EC0AF0E1DE16D81200CB
:10109000060EF76EAC0EF66E53EC00F001010A512D
:1010A0000911000104E001010907000E0A5B0001BB
:1010B000B4EC0AF0CCDE01D812008B96010E1B6E48
:1010C000060E1B5C07E28B769496140E78EC00F00B
:1010D0001B2AF6E380A814D08B860D0E5BEC00F083
:1010E000060EF76ED20EF66E53EC00F00D0E5BECB2
:1010F00000F0060EF76EE00EF66E53EC00F01200F4
:1011000080B808D08B96060EF76EFA0EF66E53EC8A
:1011100000F09DDE0A0E78EC00F080A808D08B86E7
:10112000060EF76EE00EF66E53EC00F0120080B87B
:1011300008D08B96060EF76EFA0EF66E53EC00F0A2
:1011400086DE80A814D08B860D0E5BEC00F0060EB8
:10115000F76ED20EF66E53EC00F00D0E5BEC00F065
:10116000060EF76EE00EF66E53EC00F0120080B83B
:1011700008D08B96060EF76EFA0EF66E53EC00F062
:1011800066DE80A808D08B86060EF76EE00EF66E3F
:1011900053EC00F0120080B808D08B96060EF76E64
:1011A000FA0EF66E53EC00F052DE80A808D08B8663
:1011B000060EF76EE00EF66E53EC00F0120080B8EB
:1011C00007D08B96070EF76E160EF66E53EC00F0F6
:1011D0001200070EF76E380EF66E53EC00F0120098
:1011E00080A802D08B86120080B802D08B962FDEAA
:1011F00080A802D08B8612008B961200070EF76E25
:10120000600EF66E53EC00F0AA6AA96A62EC00F078
:101210008F6FAA6A010EA96E62EC00F08E6FAA6A47
:10122000020EA96E62EC00F08D6FAA6A030EA96E21
:1012300062EC00F0936FAA6A040EA96E62EC00F0F3
:10124000926FAA6A050EA96E62EC00F0916FAA6A0D
:10125000060EA96E62EC00F0976FAA6A070EA96EDF
:1012600062EC00F0966FAA6A080EA96E62EC00F0BC
:10127000956FAA6A090EA96E62EC00F001010A6F6F
:10128000AA6A0A0EA96E62EC00F0096FAA6A0B0E38
:10129000A96E62EC00F01B6E1B52000103E18B98FB
:1012A0009A9B02D08B889A8BAA6A0C0EA96E62EC6C
:1012B00000F09B6F82DECBDD00DF1200AA6AA96A14
:1012C0008F5169EC00F0AA6A010EA96E8E5169EC8B
:1012D00000F0AA6A020EA96E8D5169EC00F0AA6AAC
:1012E000030EA96E935169EC00F0AA6A040EA96E70
:1012F000925169EC00F0AA6A050EA96E915169EC51
:1013000000F0AA6A060EA96E975169EC00F0AA6A6D
:10131000070EA96E965169EC00F0AA6A080EA96E34
:10132000955169EC00F0AA6A090EA96E01010A51F3
:1013300069EC00F0AA6A0A0EA96E095169EC00F086
:1013400000019A51E8BA07D0AA6A0B0EA96E000EE6
:1013500069EC00F006D0AA6A0B0EA96EFF0E69ECCC
:1013600000F0AA6A0C0EA96E9B5169EC00F0070E02
:10137000F76E820EF66E53EC00F012000101086B5E
:10138000000186051B6E010E9F6F1C6A1B509F5D3E
:101390002AE200EE22F09F51EB50A16F300EA15FC8
:1013A0000A0EA15D02E3070EA15FA139F00BA36F46
:1013B0009F2B00EE22F09F51EB50A16F300EA15FEA
:1013C0000A0EA15D02E3070EA15F9F2BA151A3119D
:1013D000066E00EEA4F01C5006C0EBFF0101082BC6
:1013E0001C2A0001D3D7120001010B6B0A6B096B99
:1013F0002350066E310E065C00010BE0070EF76EFF
:10140000A40EF66E53EC00F0010E01010B6F00010B
:1014100012002450066E300E065C13E02450066E57
:10142000D00E0624156E166AFF0E16221650640D95
:10143000F3CF0AF11550640DF3CF09F1F450010117
:101440000A2700012550066E300E065C24E00AC112
:1014500016F009C115F0186A0A0E176E2550066EAF
:101460001A6A06C019F0300E195E000E1A5A18C01A
:1014700012F017C011F01AC00EF019C00DF0B4EC44
:1014800000F0176E10C018F0175015240101096FF5
:10149000185016200A6F00012650066E300E065CAA
:1014A0000DE02650066ED00E0624156E166AFF0E4D
:1014B000162215500101092716500A23010E0101B9
:1014C0000A5D000111E305E1F50E0101095D00016E
:1014D0000BE3070EF76EA40EF66E53EC00F0010E50
:1014E00001010B6F000112001200010E01010A5DE3
:1014F000F40E01E1095D00010DE20AC1F7FF09C127
:10150000F6FF7A0EF626270EF722A66AA68E0800A8
:10151000F5CF13F101010B6B1B6A1A0E125D00016E
:1015200005E3010E01010B6F0001120001011351CF
:1015300012271B6A0A6A12C109F0050EC4EC00F0FA
:10154000126F1B8012A91B901B8212A71B921B8477
:1015500012A51B941B8612A31B961B8812A11B9815
:101560001BC08AFF00011200270E1E6E100E1D6E9A
:1015700001010953000104E101010A5300010FE0D8
:1015800001010A510A0DF3CF16F009510A0DF3CFEC
:1015900015F0F450162615501D2616501E22000177
:1015A0000AC10AF009C109F0000E93EC00F01B6EAD
:1015B0001B520EE1906B0F0E8F6F800E8E6F120E0E
:1015C0008D6F946B910E936F926B100E916F62D032
:1015D000020E1B5C0EE1906B4F0E8F6F800E8E6FB4
:1015E000120E8D6F946B910E936F926B280E916F0C
:1015F00051D0040E1B5C0EE1906B4F0E8F6F800E6E
:101600008E6F120E8D6F946B910E936F926B280EEE
:10161000916F40D0050E1B5C0EE1906B0F0E8F6F2B
:10162000800E8E6F120E8D6F946B910E936F926B76
:10163000100E916F2FD0060E1B5C0EE1906B4F0EBB
:101640008F6F800E8E6F120E8D6F946B910E936F55
:10165000926B280E916F1ED0080E1B5C0EE1906BF2
:101660004F0E8F6F800E8E6F120E8D6F946B910EDA
:10167000936F926B280E916F0DD0906B4F0E8F6F02
:10168000800E8E6F120E8D6F946B910E936F926B16
:10169000500E916F0AC1F7FF09C1F6FFF636F73613
:1016A000F636F736FC0EF616A60EF6261F0EF722B5
:1016B000A66AA68E0900F5CF95F00900F5CF96F041
:1016C0000900F5CF97F00900F5CF98F001010A5114
:1016D000010AE50ED8B40919000113E1906B4F0E11
:1016E0008F6F800E8E6F120E8D6F946B910E936FB5
:1016F000926B100E916F986B976B120E966F250E72
:10170000956F01010A51010ABD0ED8B409190001F3
:1017100013E1906B4F0E8F6F800E8E6F120E8D6FD8
:10172000946B910E936F926B100E916F986B976BF9
:10173000120E966F050E956F12009A51E8BA06D0F8
:10174000060EF76E440EF66E53EC00F09A51E8AABE
:1017500006D0060EF76E6E0EF66E53EC00F080A803
:1017600006D0070EF76ECA0EF66E53EC00F080B886
:1017700006D0070EF76EE80EF66E53EC00F0060E7C
:10178000F76E5C0EF66E53EC00F0040E016E020E66
:10179000046E9B5105EC00F07D0E5BEC00F0010146
:1017A0000A510A0DF3CF16F009510A0DF3CF15F0C7
:1017B000F4501626100E152400019D6F270E1620DA
:1017C0009E6F080EF76E080EF66E53EC00F0040ED6
:1017D000016E050E046E9EC010F09DC00FF007EC68
:1017E00000F0200E5BEC00F04D0E5BEC00F0480EBC
:1017F0005BEC00F07A0E5BEC00F07D0E5BEC00F031
:101800008BAA07D0080EF76E1C0EF66E53EC00F094
:1018100006D0080EF76E340EF66E53EC00F0120090
:10182000630E876F320E886F8B968B889A8B8B8AAC
:101830001F0E8A6E9B6B030E0E6EE80E79EC00F0A5
:101840009A8382A49A9301010A6B096B0B6B1B6A42
:101850001E6A1D6A126B136B00019A999A97FEEC2F
:1018600008F0866B056A88C002F033EC00F018E3DC
:1018700000EE22F08651AECFEBFF862B076A872958
:10188000066ED8B4072A07520AE10650865D07E1C2
:10189000866B080EF76E4C0EF66E53EC00F0E2D736
:1018A00086531FE19A8582A49A95E86A9AB5010F3A
:1018B0009AB3010809E04CEC07F0D8929AB5D882A7
:1018C000D8B29A83D8A29A9382B204D05EEC09F07F
:1018D00082A2FED780B802D08B76949680B88B8691
:1018E000C1D78B962250066E300E065C15E1E9ECEE
:1018F00008F0080EF76E760EF66E53EC00F0010E4F
:1019000001010A6F2C0E096F00012EDE27EC07F093
:101910005DEC08F0D0EF0FF0310E065C14E1E9EC5D
:1019200008F0080EF76E9C0EF66E53EC00F0010105
:101930000A6B780E096F000117DE27EC07F05DECEB
:1019400008F0D0EF0FF0320E065C13E1E9EC08F07E
:10195000080EF76EC20EF66E53EC00F001010A6B32
:10196000096B000101DE27EC07F05DEC08F0D0EF19
:101970000FF0330E065C14E1E9EC08F001010A6B8C
:10198000320E096F080EF76EE80EF66E53EC00F09B
:101990000001EADD27EC07F05DEC08F0D0EF0FF076
:1019A000340E065C14E1E9EC08F001010A6B3C0E10
:1019B000096F090EF76E0E0EF66E53EC00F0000183
:1019C000D3DD27EC07F05DEC08F0D0EF0FF0350E1B
:1019D000065C15E1E9EC08F0090EF76E340EF66EC0
:1019E00053EC00F001010A6B640E096F0001B4ECC6
:1019F0000AF027EC07F05DEC08F0D0EF0FF0360EA0
:101A0000065C15E1E9EC08F0090EF76E5A0EF66E69
:101A100053EC00F001010A6B7D0E096F0001B4EC7C
:101A20000AF027EC07F05DEC08F0D0EF0FF0370E6E
:101A3000065C15E1E9EC08F0090EF76E800EF66E13
:101A400053EC00F001010A6BAA0E096F0001B4EC1F
:101A50000AF027EC07F05DEC08F0D0EF0FF0380E3D
:101A6000065C15E1E9EC08F0090EF76EA60EF66EBD
:101A700053EC00F001010A6BDC0E096F0001B4ECBD
:101A80000AF027EC07F05DEC08F0D0EF0FF0390E0C
:101A9000065C16E1E9EC08F0090EF76ECC0EF66E66
:101AA00053EC00F0010E01010A6F0E0E096F0001E8
:101AB000B4EC0AF027EC07F05DEC08F0D0EF0FF083
:101AC000410E065C04E1BEEC09F0D0EF0FF0490EC8
:101AD000065C24E1010E01010A5D00010BE305E152
:101AE000F50E0101095D000105E3010E01010A6F18
:101AF000F30E096F0001090EF76EF20EF66E53EC4D
:101B000000F00101092B000E0A230001B4EC0AF0D9
:101B100027EC07F05DEC08F0D0EF0FF0440E065C08
:101B20001AE101010953000104E101010A53000116
:101B300004E001010907000E0A5B00010A0EF76EBE
:101B40001A0EF66E53EC00F0B4EC0AF027EC07F036
:101B50005DEC08F025D2680E065C03E1C2EC05F0EE
:101B60001FD2480E065C03E1C2EC05F019D2660EE6
:101B7000065C02E104D014D2460E065C1BE1060EA0
:101B8000865D07E00A0EF76E420EF66E53EC00F02B
:101B900007D2DDEC06F0F4EC09F0010E01010B5D5B
:101BA0000001D8B4FDD1B4EC0AF027EC07F05DECED
:101BB00008F0F6D1470E065C02E1BFDDF1D14C0E14
:101BC000065C0EE1010E1B6E0B0E1B5C07E28B76B2
:101BD0009496640E78EC00F01B2AF6E38B96E0D125
:101BE0004D0E065C03E15EEC09F0DAD16D0E065C89
:101BF00003E15EEC09F0D4D1500E065C03E198ECF1
:101C000007F0CED14F0E065C03E1BCEC07F0C8D163
:101C1000700E065C0BE1865308E0860500EE22F0AC
:101C2000EB505BEC00F08607F6D7BAD1510E065C9C
:101C300008E19B6B9A8B8B88DDEC07F09DEC0BF039
:101C4000AFD14B0E065C10E19A8B8B881E0E216E75
:101C500021C09BF0DDEC07F0C80E78EC00F09DECA5
:101C60000BF02106F5E29CD1520E065C08E10A0E4B
:101C7000F76E840EF66E53EC00F0D2D591D1720E51
:101C8000065C08E10A0EF76E840EF66E53EC00F067
:101C9000C7D586D1530E065CD8A4ECD09A97100E07
:101CA000865D09E0110E865D06E13250086E590E20
:101CB000085C01E19A87F4EC09F00AC10DF109C151
:101CC0000CF128C008F008C023F029C008F008C0B3
:101CD00024F02AC008F008C025F02BC008F008C086
:101CE00026F0F4EC09F00AC10FF109C10EF10DC1A3
:101CF0000AF10CC109F10101116B106B2E50086E35
:101D0000300E085C000117E02E50086ED00E08243B
:101D1000156E166AFF0E16221550E80DF3CF10F15E
:101D2000F4CF11F11650E80DF350010111271550B1
:101D3000030DF350112700012F50086E300E085C80
:101D400024E011C116F010C115F0186A640E176E68
:101D50002F50086E1A6A08C019F0300E195E000E76
:101D60001A5A18C012F017C011F01AC00EF019C09C
:101D70000DF0B4EC00F0176E10C018F017501524D9
:101D80000101106F18501620116F00013050086EBD
:101D9000300E085C24E011C116F010C115F0186A6D
:101DA0000A0E176E3050086E1A6A08C019F0300E0D
:101DB000195E000E1A5A18C012F017C011F01AC09E
:101DC0000EF019C00DF0B4EC00F0176E10C018F052
:101DD000175015240101106F18501620116F0001C3
:101DE0003150086ED00E0824156E166AFF0E1622AA
:101DF0001550010110271650112311511011000127
:101E000004E10101116B010E106F000107EC08F0F5
:101E10000DC120F00CC11FF01F5001010E5D2050BC
:101E20000F59000121E320C00AF11FC009F1B4ECF1
:101E30000AF027EC07F0F0EC08F01EEC08F011C1F6
:101E400005F010C102F033EC00F006E31B6E420E09
:101E50001B5C02E19A97A4D007EC08F09DEC0BF014
:101E60001F2A000E2022D8E31EEC08F09A51E8B693
:101E7000CDD796D0730E065C1FE1206A460E1F6E0A
:101E8000010E205C04E317E1140E1F5C14E220C075
:101E90000AF11FC009F10001B4EC0AF027EC07F0C9
:101EA0005DEC08F0640E78EC00F09DEC0BF01F2A5E
:101EB000000E2022E5E374D0540E065C36E10101E9
:101EC0000A6B096B0001BEEC09F01B6A01010853A3
:101ED000000105E01B2A010108070001F7D70D0EDC
:101EE0005BEC00F0906B8F6B8E6B8D6B946B936BD8
:101EF000926B916B986B976B966B956BA6518D6FF0
:101F0000A5518E6FA4518F6FA951916FA851926FF7
:101F1000A751936FAC51956FAB51966FAA51976FC4
:101F200027EC07F05DEC08F03BD0580E065C16E19C
:101F30009A9B8B988B9A080EF76E340EF66E53ECC4
:101F400000F0060EF76E440EF66E53EC00F00A0E2B
:101F5000F76E9E0EF66E53EC00F022D0590E065C22
:101F600016E19A8B8B888B8A080EF76E1C0EF66E24
:101F700053EC00F0060EF76E6E0EF66E53EC00F0AA
:101F80000A0EF76ED40EF66E53EC00F009D07A0EFE
:101F9000065C06E10B0EF76E0A0EF66E53EC00F0CF
:101FA00031EF0CF0FFD701190000253E0000151F8E
:101FB00000002D3E0000191F0000051900001D1F24
:101FC00000003D3E0000211F0000053F00000919F0
:101FD00000000D3F0000291F0000153F00002D1FCD
:101FE00000000D190000311F0000253F0000351FC3
:101FF00000002D3F000011190000353F00003D1F7B
:1020000000003D3F000001200000151900000520E0
:1020100000000D40000009200000154000001919C3
:1020200000001D4000001120000025400000152088
:1020300000001D19000019200000354000001D207F
:1020400000003D400000011A00000541000025206D
:1020500000000D41000029200000051A00002D207D
:1020600000001D4100003120000025410000091A38
:1020700000002D41000039200000354100003D20C6
:1020800000000D1A0000012100000542000005219A
:1020900000000D420000111A0000154200000D2141
:1020A00000001D42000011210000151A000015213A
:1020B00000002D4200001921000035420000191ACD
:1020C00000003D42000021210000054300002521C1
:1020D00000001D1A000029210000154300002D21D9
:1020E00000001D430000011B0000254300003521B6
:1020F00000002D43000039210000051B00003D2198
:1021000000003D4300000122000005440000091BBF
:1021100000000D44000009220000154400000D22BB
:1021200000000D1B000011220000254400001522B4
:1021300000002D440000111B0000354400001D224A
:1021400000003D44000021220000151B0000252254
:1021500000000D4500002922000015450000191B54
:1021600000001D45000031220000254500003522F9
:1021700000001D1B000039220000354500003D22F3
:1021800000003D450000011C00000546000005233D
:1021900000000D46000009230000051C00000D236F
:1021A00000001D4600001123000025460000091C08
:1021B00000002D46000019230000354600001D23B5
:1021C00000000D1C0000212300000547000025230E
:1021D00000000D470000111C0000154700002D23D2
:1021E00000001D47000031230000151C00003523AE
:1021F00000002D4700003923000035470000191C5E
:1022000000003D47000001240000054800000524AF
:1022100000001D1C000009240000154800000D24CA
:1022200000001D480000011D000025480000152485
:1022300000002D48000019240000051D00001D2489
:1022400000003D4800002124000005490000091D50
:1022500000000D49000029240000154900002D242C
:1022600000000D1D00003124000025490000352428
:1022700000002D490000111D0000354900003D24DB
:1022800000003D49000001250000151D0000052546
:1022900000000D4A000009250000154A0000191D24
:1022A00000001D4A000011250000254A00001525E8
:1022B00000001D1D000019250000354A00001D25E5
:1022C00000003D4A0000011E0000054B00002525CE
:1022D00000000D4B000029250000051E00002D25E3
:1022E00000001D4B000031250000254B0000091E99
:1022F00000002D4B000039250000354B00003D2526
:1023000000000D1E000001260000054C00000526FF
:1023100000000D4C0000111E0000154C00000D26A1
:1023200000001D4C000011260000151E000015269F
:1023300000002D4C000019260000354C0000191E2D
:1023400000003D4C000021260000054D0000252620
:1023500000001D1E000029260000154D00002D263E
:1023600000001D4D0000011F0000254D0000352616
:1023700000002D4D000039260000051F00003D26FD
:1023800000003D4D000001270000054E0000091F20
:1023900000000D4E000009270000154E00000D271B
:1023A00000000D1F000011270000254E000015271A
:1023B00000002D4E0000111F0000354E00001D27AB
:1023C00000003D4E000021270000151F00002527BA
:1023D00000000D4F000029270000154F0000191FB5
:1023E00000001D4F000031270000254F0000352759
:1023F00000001D1F000039270000354F00003D2759
:1024000000003D4F0000012000000550000005289D
:1024100000000D50000009280000052000000D28D4
:1024200000001D5000001128000025500000092068
:1024300000002D50000019280000355000001D2814
:1024400000000D2000002128000005510000252873
:1024500000000D51000011200000155100002D2832
:1024600000001D5100003128000015200000352813
:1024700000002D51000039280000355100001920BE
:1024800000003D510000012900000552000005290F
:1024900000001D20000009290000155200000D2930
:1024A00000001D52000001210000255200001529E6
:1024B00000002D52000019290000052100001D29EF
:1024C00000003D52000021290000055300000921B1
:1024D00000000D53000029290000155300002D298C
:1024E00000000D210000312900002553000035298E
:1024F00000002D53000011210000355300003D293C
:1025000000003D530000012A000015210000052AAB
:1025100000000D540000092A000015540000192184
:1025200000001D540000112A000025540000152A47
:1025300000001D210000192A0000355400001D2A4A
:1025400000003D5400000122000005550000252A2E
:1025500000000D550000292A0000052200002D2A48
:1025600000001D550000312A0000255500000922F9
:1025700000002D550000392A0000355500003D2A85
:1025800000000D220000012B000005560000052B65
:1025900000000D56000011220000155600000D2B02
:1025A00000001D560000112B000015220000152B05
:1025B00000002D560000192B00003556000019228E
:1025C00000003D560000212B000005570000252B80
:1025D00000001D220000292B0000155700002D2BA4
:1025E00000001D5700000123000025570000352B77
:1025F00000002D570000392B0000052300003D2B63
:1026000000003D570000012C000005580000092380
:1026100000000D580000092C0000155800000D2C7A
:1026200000000D230000112C000025580000152C7F
:1026300000002D58000011230000355800001D2C0B
:1026400000003D580000212C000015230000252C1F
:1026500000000D590000292C000015590000192315
:1026600000001D590000312C000025590000352CB8
:1026700000001D230000392C0000355900003D2CBE
:1026800000003D59000001240000055A0000052DFE
:1026900000000D5A0000092D0000051200000D2D4C
:1026A00000001D5A0000112D0000255A00000924C9
:1026B00000002D5A0000192D0000355A00001D2D74
:1026C00000000D240000212D0000055B0000252DD9
:1026D00000000D5B000011240000155B00002D2D93
:1026E00000001D5B0000312D000015240000352D79
:1026F00000002D5B0000392D0000355B000019241F
:1027000000003D5B0000012E0000055C0000052E6E
:1027100000001D240000092E0000155C00000D2E95
:1027200000001D5C000001250000255C0000152E46
:1027300000002D5C0000192E0000251200001D2E47
:1027400000003D5C0000212E0000055D0000092511
:1027500000000D5D0000292E0000155D00002D2EEB
:1027600000000D250000312E0000255D0000352EF3
:1027700000002D5D00001125000001010101010193
:102780000101010202020202020202020203030329
:0C27900003030304040404040404FFD742
:020000040030CA
:03000100321E1C90
:02000500BD80BC
:060008000FC00FE00F40E5
:0200000400F00A
:0E0000004F8012910010000E010000FF000062
:00000001FF
